{
  "abi": [
    {
      "anonymous": false,
      "inputs": [
        {
          "indexed": true,
          "internalType": "address",
          "name": "author",
          "type": "address"
        },
        {
          "indexed": false,
          "internalType": "uint256",
          "name": "reward",
          "type": "uint256"
        }
      ],
      "name": "AuthorRewarded",
      "type": "event"
    },
    {
      "anonymous": false,
      "inputs": [
        {
          "indexed": false,
          "internalType": "uint256",
          "name": "postId",
          "type": "uint256"
        },
        {
          "indexed": false,
          "internalType": "address",
          "name": "author",
          "type": "address"
        },
        {
          "indexed": false,
          "internalType": "string",
          "name": "text",
          "type": "string"
        },
        {
          "indexed": false,
          "internalType": "string[]",
          "name": "tags",
          "type": "string[]"
        },
        {
          "indexed": false,
          "internalType": "uint256",
          "name": "value",
          "type": "uint256"
        },
        {
          "indexed": false,
          "internalType": "string",
          "name": "imageUrl",
          "type": "string"
        },
        {
          "indexed": false,
          "internalType": "string",
          "name": "imageName",
          "type": "string"
        },
        {
          "indexed": false,
          "internalType": "string",
          "name": "assetId",
          "type": "string"
        },
        {
          "indexed": false,
          "internalType": "string",
          "name": "playbackId",
          "type": "string"
        },
        {
          "indexed": false,
          "internalType": "string",
          "name": "title",
          "type": "string"
        }
      ],
      "name": "PostAdded",
      "type": "event"
    },
    {
      "inputs": [],
      "name": "getAllPosts",
      "outputs": [
        {
          "components": [
            {
              "internalType": "string",
              "name": "imageUrl",
              "type": "string"
            },
            {
              "internalType": "string",
              "name": "imageName",
              "type": "string"
            },
            {
              "internalType": "string",
              "name": "assetId",
              "type": "string"
            },
            {
              "internalType": "string",
              "name": "playbackId",
              "type": "string"
            },
            {
              "internalType": "string",
              "name": "title",
              "type": "string"
            },
            {
              "internalType": "string",
              "name": "text",
              "type": "string"
            },
            {
              "internalType": "string[]",
              "name": "tags",
              "type": "string[]"
            }
          ],
          "internalType": "struct Blog.PostData[]",
          "name": "",
          "type": "tuple[]"
        }
      ],
      "stateMutability": "view",
      "type": "function"
    },
    {
      "inputs": [],
      "name": "getLatestPosts",
      "outputs": [
        {
          "components": [
            {
              "internalType": "string",
              "name": "imageUrl",
              "type": "string"
            },
            {
              "internalType": "string",
              "name": "imageName",
              "type": "string"
            },
            {
              "internalType": "string",
              "name": "assetId",
              "type": "string"
            },
            {
              "internalType": "string",
              "name": "playbackId",
              "type": "string"
            },
            {
              "internalType": "string",
              "name": "title",
              "type": "string"
            },
            {
              "internalType": "string",
              "name": "text",
              "type": "string"
            },
            {
              "internalType": "string[]",
              "name": "tags",
              "type": "string[]"
            }
          ],
          "internalType": "struct Blog.PostData[]",
          "name": "",
          "type": "tuple[]"
        },
        {
          "internalType": "uint256",
          "name": "",
          "type": "uint256"
        }
      ],
      "stateMutability": "view",
      "type": "function"
    },
    {
      "inputs": [],
      "name": "getMyPosts",
      "outputs": [
        {
          "components": [
            {
              "internalType": "string",
              "name": "imageUrl",
              "type": "string"
            },
            {
              "internalType": "string",
              "name": "imageName",
              "type": "string"
            },
            {
              "internalType": "string",
              "name": "assetId",
              "type": "string"
            },
            {
              "internalType": "string",
              "name": "playbackId",
              "type": "string"
            },
            {
              "internalType": "string",
              "name": "title",
              "type": "string"
            },
            {
              "internalType": "string",
              "name": "text",
              "type": "string"
            },
            {
              "internalType": "string[]",
              "name": "tags",
              "type": "string[]"
            }
          ],
          "internalType": "struct Blog.PostData[]",
          "name": "",
          "type": "tuple[]"
        }
      ],
      "stateMutability": "view",
      "type": "function"
    },
    {
      "inputs": [
        {
          "internalType": "address",
          "name": "author",
          "type": "address"
        }
      ],
      "name": "getPaidEth",
      "outputs": [
        {
          "internalType": "uint256",
          "name": "",
          "type": "uint256"
        }
      ],
      "stateMutability": "view",
      "type": "function"
    },
    {
      "inputs": [
        {
          "internalType": "uint256",
          "name": "_postId",
          "type": "uint256"
        }
      ],
      "name": "getPostById",
      "outputs": [
        {
          "components": [
            {
              "internalType": "string",
              "name": "imageUrl",
              "type": "string"
            },
            {
              "internalType": "string",
              "name": "imageName",
              "type": "string"
            },
            {
              "internalType": "string",
              "name": "assetId",
              "type": "string"
            },
            {
              "internalType": "string",
              "name": "playbackId",
              "type": "string"
            },
            {
              "internalType": "string",
              "name": "title",
              "type": "string"
            },
            {
              "internalType": "string",
              "name": "text",
              "type": "string"
            },
            {
              "internalType": "string[]",
              "name": "tags",
              "type": "string[]"
            }
          ],
          "internalType": "struct Blog.PostData",
          "name": "",
          "type": "tuple"
        }
      ],
      "stateMutability": "view",
      "type": "function"
    },
    {
      "inputs": [
        {
          "internalType": "uint256[]",
          "name": "_postIds",
          "type": "uint256[]"
        }
      ],
      "name": "getPostsByIds",
      "outputs": [
        {
          "components": [
            {
              "internalType": "string",
              "name": "imageUrl",
              "type": "string"
            },
            {
              "internalType": "string",
              "name": "imageName",
              "type": "string"
            },
            {
              "internalType": "string",
              "name": "assetId",
              "type": "string"
            },
            {
              "internalType": "string",
              "name": "playbackId",
              "type": "string"
            },
            {
              "internalType": "string",
              "name": "title",
              "type": "string"
            },
            {
              "internalType": "string",
              "name": "text",
              "type": "string"
            },
            {
              "internalType": "string[]",
              "name": "tags",
              "type": "string[]"
            }
          ],
          "internalType": "struct Blog.PostData[]",
          "name": "",
          "type": "tuple[]"
        }
      ],
      "stateMutability": "view",
      "type": "function"
    },
    {
      "inputs": [],
      "name": "greet",
      "outputs": [
        {
          "internalType": "string",
          "name": "",
          "type": "string"
        }
      ],
      "stateMutability": "pure",
      "type": "function"
    },
    {
      "inputs": [
        {
          "internalType": "address",
          "name": "",
          "type": "address"
        }
      ],
      "name": "paidEth",
      "outputs": [
        {
          "internalType": "uint256",
          "name": "",
          "type": "uint256"
        }
      ],
      "stateMutability": "view",
      "type": "function"
    },
    {
      "inputs": [
        {
          "internalType": "string",
          "name": "_imageUrl",
          "type": "string"
        },
        {
          "internalType": "string",
          "name": "_imageName",
          "type": "string"
        },
        {
          "internalType": "string",
          "name": "_assetId",
          "type": "string"
        },
        {
          "internalType": "string",
          "name": "_playbackId",
          "type": "string"
        },
        {
          "internalType": "string",
          "name": "_title",
          "type": "string"
        },
        {
          "internalType": "string",
          "name": "_text",
          "type": "string"
        },
        {
          "internalType": "string[]",
          "name": "_tags",
          "type": "string[]"
        }
      ],
      "name": "post",
      "outputs": [],
      "stateMutability": "payable",
      "type": "function"
    },
    {
      "inputs": [
        {
          "internalType": "uint256",
          "name": "",
          "type": "uint256"
        }
      ],
      "name": "posts",
      "outputs": [
        {
          "internalType": "string",
          "name": "imageUrl",
          "type": "string"
        },
        {
          "internalType": "string",
          "name": "imageName",
          "type": "string"
        },
        {
          "internalType": "string",
          "name": "assetId",
          "type": "string"
        },
        {
          "internalType": "string",
          "name": "playbackId",
          "type": "string"
        },
        {
          "internalType": "string",
          "name": "title",
          "type": "string"
        },
        {
          "internalType": "string",
          "name": "text",
          "type": "string"
        }
      ],
      "stateMutability": "view",
      "type": "function"
    },
    {
      "inputs": [
        {
          "internalType": "address payable",
          "name": "author",
          "type": "address"
        },
        {
          "internalType": "uint256",
          "name": "reward",
          "type": "uint256"
        }
      ],
      "name": "rewardAuthor",
      "outputs": [],
      "stateMutability": "payable",
      "type": "function"
    },
    {
      "inputs": [],
      "name": "withdrawFunds",
      "outputs": [],
      "stateMutability": "nonpayable",
      "type": "function"
    }
  ],
  "bytecode": {
    "object": "0x608060405234801561001057600080fd5b50612d0b806100206000396000f3fe6080604052600436106100a75760003560e01c806364e958951161006457806364e95895146101835780637feb1fba146101b05780639d35b16d146101c3578063c5287d86146101f9578063cfae321714610219578063dc56e29b1461025757600080fd5b80630b1e7f83146100ac57806324600fc3146100e7578063253f2d07146100fe578063305611001461011157806351263795146101335780635950eb5b1461016e575b600080fd5b3480156100b857600080fd5b506100cc6100c7366004612418565b61027a565b6040516100de96959493929190612477565b60405180910390f35b3480156100f357600080fd5b506100fc6105de565b005b6100fc61010c36600461250e565b610689565b34801561011d57600080fd5b506101266107e7565b6040516100de9190612690565b34801561013f57600080fd5b5061016061014e3660046126aa565b60006020819052908152604090205481565b6040519081526020016100de565b34801561017a57600080fd5b50610126610ceb565b34801561018f57600080fd5b506101a361019e366004612418565b61125f565b6040516100de91906126c7565b6100fc6101be366004612845565b6116ca565b3480156101cf57600080fd5b506101606101de3660046126aa565b6001600160a01b031660009081526020819052604090205490565b34801561020557600080fd5b50610126610214366004612960565b6118b2565b34801561022557600080fd5b50604080518082018252600f81526e54686973206973206120626c6f672160881b602082015290516100de91906129f1565b34801561026357600080fd5b5061026c611dc4565b6040516100de929190612a04565b60026020526000908152604090208054819061029590612a26565b80601f01602080910402602001604051908101604052809291908181526020018280546102c190612a26565b801561030e5780601f106102e35761010080835404028352916020019161030e565b820191906000526020600020905b8154815290600101906020018083116102f157829003601f168201915b50505050509080600101805461032390612a26565b80601f016020809104026020016040519081016040528092919081815260200182805461034f90612a26565b801561039c5780601f106103715761010080835404028352916020019161039c565b820191906000526020600020905b81548152906001019060200180831161037f57829003601f168201915b5050505050908060020180546103b190612a26565b80601f01602080910402602001604051908101604052809291908181526020018280546103dd90612a26565b801561042a5780601f106103ff5761010080835404028352916020019161042a565b820191906000526020600020905b81548152906001019060200180831161040d57829003601f168201915b50505050509080600301805461043f90612a26565b80601f016020809104026020016040519081016040528092919081815260200182805461046b90612a26565b80156104b85780601f1061048d576101008083540402835291602001916104b8565b820191906000526020600020905b81548152906001019060200180831161049b57829003601f168201915b5050505050908060040180546104cd90612a26565b80601f01602080910402602001604051908101604052809291908181526020018280546104f990612a26565b80156105465780601f1061051b57610100808354040283529160200191610546565b820191906000526020600020905b81548152906001019060200180831161052957829003601f168201915b50505050509080600501805461055b90612a26565b80601f016020809104026020016040519081016040528092919081815260200182805461058790612a26565b80156105d45780601f106105a9576101008083540402835291602001916105d4565b820191906000526020600020905b8154815290600101906020018083116105b757829003601f168201915b5050505050905086565b336000908152602081905260409020548061064a5760405162461bcd60e51b815260206004820152602160248201527f4e6f2066756e647320617661696c61626c6520666f72207769746864726177616044820152601b60fa1b60648201526084015b60405180910390fd5b336000818152602081905260408082208290555183156108fc0291849190818181858888f19350505050158015610685573d6000803e3d6000fd5b5050565b803410156106f75760405162461bcd60e51b815260206004820152603560248201527f54686520726577617264206d75737420626520657175616c20746f206f72206c6044820152740cae6e640e8d0c2dc40e8d0ca40e6cadce8408aa89605b1b6064820152608401610641565b6001600160a01b0382166107695760405162461bcd60e51b815260206004820152603360248201527f54686520617574686f722061646472657373206d75737420626520612076616c604482015272696420457468657265756d206164647265737360681b6064820152608401610641565b6040516001600160a01b0383169082156108fc029083906000818181858888f1935050505015801561079f573d6000803e3d6000fd5b50816001600160a01b03167f5e9602dc01bec2103bb6005d1c6255a2b4973230712176360b4e449079c36cbd826040516107db91815260200190565b60405180910390a25050565b6060600060035467ffffffffffffffff811115610806576108066126da565b60405190808252806020026020018201604052801561083f57816020015b61082c612316565b8152602001906001900390816108245790505b50905060015b6003548111610ce55760008181526002602052604090819020815160e0810190925280548290829061087690612a26565b80601f01602080910402602001604051908101604052809291908181526020018280546108a290612a26565b80156108ef5780601f106108c4576101008083540402835291602001916108ef565b820191906000526020600020905b8154815290600101906020018083116108d257829003601f168201915b5050505050815260200160018201805461090890612a26565b80601f016020809104026020016040519081016040528092919081815260200182805461093490612a26565b80156109815780601f1061095657610100808354040283529160200191610981565b820191906000526020600020905b81548152906001019060200180831161096457829003601f168201915b5050505050815260200160028201805461099a90612a26565b80601f01602080910402602001604051908101604052809291908181526020018280546109c690612a26565b8015610a135780601f106109e857610100808354040283529160200191610a13565b820191906000526020600020905b8154815290600101906020018083116109f657829003601f168201915b50505050508152602001600382018054610a2c90612a26565b80601f0160208091040260200160405190810160405280929190818152602001828054610a5890612a26565b8015610aa55780601f10610a7a57610100808354040283529160200191610aa5565b820191906000526020600020905b815481529060010190602001808311610a8857829003601f168201915b50505050508152602001600482018054610abe90612a26565b80601f0160208091040260200160405190810160405280929190818152602001828054610aea90612a26565b8015610b375780601f10610b0c57610100808354040283529160200191610b37565b820191906000526020600020905b815481529060010190602001808311610b1a57829003601f168201915b50505050508152602001600582018054610b5090612a26565b80601f0160208091040260200160405190810160405280929190818152602001828054610b7c90612a26565b8015610bc95780601f10610b9e57610100808354040283529160200191610bc9565b820191906000526020600020905b815481529060010190602001808311610bac57829003601f168201915b5050505050815260200160068201805480602002602001604051908101604052809291908181526020016000905b82821015610ca3578382906000526020600020018054610c1690612a26565b80601f0160208091040260200160405190810160405280929190818152602001828054610c4290612a26565b8015610c8f5780601f10610c6457610100808354040283529160200191610c8f565b820191906000526020600020905b815481529060010190602001808311610c7257829003601f168201915b505050505081526020019060010190610bf7565b505050915250839050610cb7600184612a70565b81518110610cc757610cc7612a89565b60200260200101819052508080610cdd90612a9f565b915050610845565b50919050565b336000908152600160209081526040808320805482518185028101850190935280835260609493830182828015610d4157602002820191906000526020600020905b815481526020019060010190808311610d2d575b505050505090506000815167ffffffffffffffff811115610d6457610d646126da565b604051908082528060200260200182016040528015610d9d57816020015b610d8a612316565b815260200190600190039081610d825790505b50905060005b82518110156112585760026000848381518110610dc257610dc2612a89565b602002602001015181526020019081526020016000206040518060e0016040529081600082018054610df390612a26565b80601f0160208091040260200160405190810160405280929190818152602001828054610e1f90612a26565b8015610e6c5780601f10610e4157610100808354040283529160200191610e6c565b820191906000526020600020905b815481529060010190602001808311610e4f57829003601f168201915b50505050508152602001600182018054610e8590612a26565b80601f0160208091040260200160405190810160405280929190818152602001828054610eb190612a26565b8015610efe5780601f10610ed357610100808354040283529160200191610efe565b820191906000526020600020905b815481529060010190602001808311610ee157829003601f168201915b50505050508152602001600282018054610f1790612a26565b80601f0160208091040260200160405190810160405280929190818152602001828054610f4390612a26565b8015610f905780601f10610f6557610100808354040283529160200191610f90565b820191906000526020600020905b815481529060010190602001808311610f7357829003601f168201915b50505050508152602001600382018054610fa990612a26565b80601f0160208091040260200160405190810160405280929190818152602001828054610fd590612a26565b80156110225780601f10610ff757610100808354040283529160200191611022565b820191906000526020600020905b81548152906001019060200180831161100557829003601f168201915b5050505050815260200160048201805461103b90612a26565b80601f016020809104026020016040519081016040528092919081815260200182805461106790612a26565b80156110b45780601f10611089576101008083540402835291602001916110b4565b820191906000526020600020905b81548152906001019060200180831161109757829003601f168201915b505050505081526020016005820180546110cd90612a26565b80601f01602080910402602001604051908101604052809291908181526020018280546110f990612a26565b80156111465780601f1061111b57610100808354040283529160200191611146565b820191906000526020600020905b81548152906001019060200180831161112957829003601f168201915b5050505050815260200160068201805480602002602001604051908101604052809291908181526020016000905b8282101561122057838290600052602060002001805461119390612a26565b80601f01602080910402602001604051908101604052809291908181526020018280546111bf90612a26565b801561120c5780601f106111e15761010080835404028352916020019161120c565b820191906000526020600020905b8154815290600101906020018083116111ef57829003601f168201915b505050505081526020019060010190611174565b505050508152505082828151811061123a5761123a612a89565b6020026020010181905250808061125090612a9f565b915050610da3565b5092915050565b611267612316565b60008281526002602052604090819020815160e0810190925280548290829061128f90612a26565b80601f01602080910402602001604051908101604052809291908181526020018280546112bb90612a26565b80156113085780601f106112dd57610100808354040283529160200191611308565b820191906000526020600020905b8154815290600101906020018083116112eb57829003601f168201915b5050505050815260200160018201805461132190612a26565b80601f016020809104026020016040519081016040528092919081815260200182805461134d90612a26565b801561139a5780601f1061136f5761010080835404028352916020019161139a565b820191906000526020600020905b81548152906001019060200180831161137d57829003601f168201915b505050505081526020016002820180546113b390612a26565b80601f01602080910402602001604051908101604052809291908181526020018280546113df90612a26565b801561142c5780601f106114015761010080835404028352916020019161142c565b820191906000526020600020905b81548152906001019060200180831161140f57829003601f168201915b5050505050815260200160038201805461144590612a26565b80601f016020809104026020016040519081016040528092919081815260200182805461147190612a26565b80156114be5780601f10611493576101008083540402835291602001916114be565b820191906000526020600020905b8154815290600101906020018083116114a157829003601f168201915b505050505081526020016004820180546114d790612a26565b80601f016020809104026020016040519081016040528092919081815260200182805461150390612a26565b80156115505780601f1061152557610100808354040283529160200191611550565b820191906000526020600020905b81548152906001019060200180831161153357829003601f168201915b5050505050815260200160058201805461156990612a26565b80601f016020809104026020016040519081016040528092919081815260200182805461159590612a26565b80156115e25780601f106115b7576101008083540402835291602001916115e2565b820191906000526020600020905b8154815290600101906020018083116115c557829003601f168201915b5050505050815260200160068201805480602002602001604051908101604052809291908181526020016000905b828210156116bc57838290600052602060002001805461162f90612a26565b80601f016020809104026020016040519081016040528092919081815260200182805461165b90612a26565b80156116a85780601f1061167d576101008083540402835291602001916116a8565b820191906000526020600020905b81548152906001019060200180831161168b57829003601f168201915b505050505081526020019060010190611610565b505050915250909392505050565b600034116117285760405162461bcd60e51b815260206004820152602560248201527f596f75206d7573742070617920736f6d652045544820746f20706f737420636f6044820152641b9d195b9d60da1b6064820152608401610641565b3360009081526020819052604081208054349290611747908490612ab8565b90915550506003805490600061175c83612a9f565b9091555050336000908152600160208181526040808420600380548254958601835591865283862090940155805160e0810182528b81528083018b90528082018a9052606081018990526080810188905260a0810187905260c08101869052925484526002909152909120815181906117d59082612b1a565b50602082015160018201906117ea9082612b1a565b50604082015160028201906117ff9082612b1a565b50606082015160038201906118149082612b1a565b50608082015160048201906118299082612b1a565b5060a0820151600582019061183e9082612b1a565b5060c0820151805161185a916006840191602090910190612353565b509050507f0a02b48740b793152bf2527bf6009664b7bf2f8689082b19961a5daef994d4f3600354338484348c8c8c8c8c6040516118a19a99989796959493929190612bda565b60405180910390a150505050505050565b60606000825167ffffffffffffffff8111156118d0576118d06126da565b60405190808252806020026020018201604052801561190957816020015b6118f6612316565b8152602001906001900390816118ee5790505b50905060005b8351811015611258576002600085838151811061192e5761192e612a89565b602002602001015181526020019081526020016000206040518060e001604052908160008201805461195f90612a26565b80601f016020809104026020016040519081016040528092919081815260200182805461198b90612a26565b80156119d85780601f106119ad576101008083540402835291602001916119d8565b820191906000526020600020905b8154815290600101906020018083116119bb57829003601f168201915b505050505081526020016001820180546119f190612a26565b80601f0160208091040260200160405190810160405280929190818152602001828054611a1d90612a26565b8015611a6a5780601f10611a3f57610100808354040283529160200191611a6a565b820191906000526020600020905b815481529060010190602001808311611a4d57829003601f168201915b50505050508152602001600282018054611a8390612a26565b80601f0160208091040260200160405190810160405280929190818152602001828054611aaf90612a26565b8015611afc5780601f10611ad157610100808354040283529160200191611afc565b820191906000526020600020905b815481529060010190602001808311611adf57829003601f168201915b50505050508152602001600382018054611b1590612a26565b80601f0160208091040260200160405190810160405280929190818152602001828054611b4190612a26565b8015611b8e5780601f10611b6357610100808354040283529160200191611b8e565b820191906000526020600020905b815481529060010190602001808311611b7157829003601f168201915b50505050508152602001600482018054611ba790612a26565b80601f0160208091040260200160405190810160405280929190818152602001828054611bd390612a26565b8015611c205780601f10611bf557610100808354040283529160200191611c20565b820191906000526020600020905b815481529060010190602001808311611c0357829003601f168201915b50505050508152602001600582018054611c3990612a26565b80601f0160208091040260200160405190810160405280929190818152602001828054611c6590612a26565b8015611cb25780601f10611c8757610100808354040283529160200191611cb2565b820191906000526020600020905b815481529060010190602001808311611c9557829003601f168201915b5050505050815260200160068201805480602002602001604051908101604052809291908181526020016000905b82821015611d8c578382906000526020600020018054611cff90612a26565b80601f0160208091040260200160405190810160405280929190818152602001828054611d2b90612a26565b8015611d785780601f10611d4d57610100808354040283529160200191611d78565b820191906000526020600020905b815481529060010190602001808311611d5b57829003601f168201915b505050505081526020019060010190611ce0565b5050505081525050828281518110611da657611da6612a89565b60200260200101819052508080611dbc90612a9f565b91505061190f565b6003546060906000906005811115611de857611de1600582612a70565b9050611dec565b5060015b600081600354611dfc9190612a70565b611e07906001612ab8565b905060008167ffffffffffffffff811115611e2457611e246126da565b604051908082528060200260200182016040528015611e5d57816020015b611e4a612316565b815260200190600190039081611e425790505b50905060005b828110156123075760026000611e798387612ab8565b81526020019081526020016000206040518060e0016040529081600082018054611ea290612a26565b80601f0160208091040260200160405190810160405280929190818152602001828054611ece90612a26565b8015611f1b5780601f10611ef057610100808354040283529160200191611f1b565b820191906000526020600020905b815481529060010190602001808311611efe57829003601f168201915b50505050508152602001600182018054611f3490612a26565b80601f0160208091040260200160405190810160405280929190818152602001828054611f6090612a26565b8015611fad5780601f10611f8257610100808354040283529160200191611fad565b820191906000526020600020905b815481529060010190602001808311611f9057829003601f168201915b50505050508152602001600282018054611fc690612a26565b80601f0160208091040260200160405190810160405280929190818152602001828054611ff290612a26565b801561203f5780601f106120145761010080835404028352916020019161203f565b820191906000526020600020905b81548152906001019060200180831161202257829003601f168201915b5050505050815260200160038201805461205890612a26565b80601f016020809104026020016040519081016040528092919081815260200182805461208490612a26565b80156120d15780601f106120a6576101008083540402835291602001916120d1565b820191906000526020600020905b8154815290600101906020018083116120b457829003601f168201915b505050505081526020016004820180546120ea90612a26565b80601f016020809104026020016040519081016040528092919081815260200182805461211690612a26565b80156121635780601f1061213857610100808354040283529160200191612163565b820191906000526020600020905b81548152906001019060200180831161214657829003601f168201915b5050505050815260200160058201805461217c90612a26565b80601f01602080910402602001604051908101604052809291908181526020018280546121a890612a26565b80156121f55780601f106121ca576101008083540402835291602001916121f5565b820191906000526020600020905b8154815290600101906020018083116121d857829003601f168201915b5050505050815260200160068201805480602002602001604051908101604052809291908181526020016000905b828210156122cf57838290600052602060002001805461224290612a26565b80601f016020809104026020016040519081016040528092919081815260200182805461226e90612a26565b80156122bb5780601f10612290576101008083540402835291602001916122bb565b820191906000526020600020905b81548152906001019060200180831161229e57829003601f168201915b505050505081526020019060010190612223565b50505050815250508282815181106122e9576122e9612a89565b602002602001018190525080806122ff90612a9f565b915050611e63565b50600354909590945092505050565b6040518060e00160405280606081526020016060815260200160608152602001606081526020016060815260200160608152602001606081525090565b828054828255906000526020600020908101928215612399579160200282015b8281111561239957825182906123899082612b1a565b5091602001919060010190612373565b506123a59291506123a9565b5090565b808211156123a55760006123bd82826123c6565b506001016123a9565b5080546123d290612a26565b6000825580601f106123e2575050565b601f0160209004906000526020600020908101906124009190612403565b50565b5b808211156123a55760008155600101612404565b60006020828403121561242a57600080fd5b5035919050565b6000815180845260005b818110156124575760208185018101518683018201520161243b565b506000602082860101526020601f19601f83011685010191505092915050565b60c08152600061248a60c0830189612431565b828103602084015261249c8189612431565b905082810360408401526124b08188612431565b905082810360608401526124c48187612431565b905082810360808401526124d88186612431565b905082810360a08401526124ec8185612431565b9998505050505050505050565b6001600160a01b038116811461240057600080fd5b6000806040838503121561252157600080fd5b823561252c816124f9565b946020939093013593505050565b600082825180855260208086019550808260051b84010181860160005b8481101561258557601f19868403018952612573838351612431565b98840198925090830190600101612557565b5090979650505050505050565b6000815160e084526125a760e0850182612431565b9050602083015184820360208601526125c08282612431565b915050604083015184820360408601526125da8282612431565b915050606083015184820360608601526125f48282612431565b9150506080830151848203608086015261260e8282612431565b91505060a083015184820360a08601526126288282612431565b91505060c083015184820360c0860152612642828261253a565b95945050505050565b6000815180845260208085019450848260051b860182860160005b8581101561258557838303895261267e838351612592565b98850198925090840190600101612666565b6020815260006126a3602083018461264b565b9392505050565b6000602082840312156126bc57600080fd5b81356126a3816124f9565b6020815260006126a36020830184612592565b634e487b7160e01b600052604160045260246000fd5b604051601f8201601f1916810167ffffffffffffffff81118282101715612719576127196126da565b604052919050565b600082601f83011261273257600080fd5b813567ffffffffffffffff81111561274c5761274c6126da565b61275f601f8201601f19166020016126f0565b81815284602083860101111561277457600080fd5b816020850160208301376000918101602001919091529392505050565b600067ffffffffffffffff8211156127ab576127ab6126da565b5060051b60200190565b600082601f8301126127c657600080fd5b813560206127db6127d683612791565b6126f0565b82815260059290921b840181019181810190868411156127fa57600080fd5b8286015b8481101561283a57803567ffffffffffffffff81111561281e5760008081fd5b61282c8986838b0101612721565b8452509183019183016127fe565b509695505050505050565b600080600080600080600060e0888a03121561286057600080fd5b873567ffffffffffffffff8082111561287857600080fd5b6128848b838c01612721565b985060208a013591508082111561289a57600080fd5b6128a68b838c01612721565b975060408a01359150808211156128bc57600080fd5b6128c88b838c01612721565b965060608a01359150808211156128de57600080fd5b6128ea8b838c01612721565b955060808a013591508082111561290057600080fd5b61290c8b838c01612721565b945060a08a013591508082111561292257600080fd5b61292e8b838c01612721565b935060c08a013591508082111561294457600080fd5b506129518a828b016127b5565b91505092959891949750929550565b6000602080838503121561297357600080fd5b823567ffffffffffffffff81111561298a57600080fd5b8301601f8101851361299b57600080fd5b80356129a96127d682612791565b81815260059190911b820183019083810190878311156129c857600080fd5b928401925b828410156129e6578335825292840192908401906129cd565b979650505050505050565b6020815260006126a36020830184612431565b604081526000612a17604083018561264b565b90508260208301529392505050565b600181811c90821680612a3a57607f821691505b602082108103610ce557634e487b7160e01b600052602260045260246000fd5b634e487b7160e01b600052601160045260246000fd5b81810381811115612a8357612a83612a5a565b92915050565b634e487b7160e01b600052603260045260246000fd5b600060018201612ab157612ab1612a5a565b5060010190565b80820180821115612a8357612a83612a5a565b601f821115612b1557600081815260208120601f850160051c81016020861015612af25750805b601f850160051c820191505b81811015612b1157828155600101612afe565b5050505b505050565b815167ffffffffffffffff811115612b3457612b346126da565b612b4881612b428454612a26565b84612acb565b602080601f831160018114612b7d5760008415612b655750858301515b600019600386901b1c1916600185901b178555612b11565b600085815260208120601f198616915b82811015612bac57888601518255948401946001909101908401612b8d565b5085821015612bca5787850151600019600388901b60f8161c191681555b5050505050600190811b01905550565b60006101408c8352602060018060a01b038d1681850152816040850152612c038285018d612431565b91508382036060850152818b518084528284019150828160051b850101838e0160005b83811015612c5457601f19878403018552612c42838351612431565b94860194925090850190600101612c26565b50508c608088015286810360a0880152612c6e818d612431565b94505050505082810360c0840152612c868188612431565b905082810360e0840152612c9a8187612431565b9050828103610100840152612caf8186612431565b9050828103610120840152612cc48185612431565b9d9c5050505050505050505050505056fea2646970667358221220d0a2a96bb82528c8eb53686d768b1341d2e36a5e79976e245259164445bdc6a164736f6c63430008120033",
    "linkReferences": {}
  },
  "methodIdentifiers": {
    "getAllPosts()": "30561100",
    "getLatestPosts()": "dc56e29b",
    "getMyPosts()": "5950eb5b",
    "getPaidEth(address)": "9d35b16d",
    "getPostById(uint256)": "64e95895",
    "getPostsByIds(uint256[])": "c5287d86",
    "greet()": "cfae3217",
    "paidEth(address)": "51263795",
    "post(string,string,string,string,string,string,string[])": "7feb1fba",
    "posts(uint256)": "0b1e7f83",
    "rewardAuthor(address,uint256)": "253f2d07",
    "withdrawFunds()": "24600fc3"
  },
  "id": 0
}