{
  "abi": [
    {
      "anonymous": false,
      "inputs": [
        {
          "indexed": true,
          "internalType": "address",
          "name": "author",
          "type": "address"
        },
        {
          "indexed": false,
          "internalType": "uint256",
          "name": "reward",
          "type": "uint256"
        }
      ],
      "name": "AuthorRewarded",
      "type": "event"
    },
    {
      "anonymous": false,
      "inputs": [
        {
          "indexed": true,
          "internalType": "uint256",
          "name": "postId",
          "type": "uint256"
        },
        {
          "indexed": false,
          "internalType": "address",
          "name": "author",
          "type": "address"
        },
        {
          "indexed": false,
          "internalType": "uint256",
          "name": "value",
          "type": "uint256"
        },
        {
          "indexed": false,
          "internalType": "string",
          "name": "imageUrl",
          "type": "string"
        },
        {
          "indexed": false,
          "internalType": "string",
          "name": "imageName",
          "type": "string"
        },
        {
          "indexed": false,
          "internalType": "string",
          "name": "assetId",
          "type": "string"
        },
        {
          "indexed": false,
          "internalType": "string",
          "name": "playbackId",
          "type": "string"
        },
        {
          "indexed": false,
          "internalType": "string",
          "name": "text",
          "type": "string"
        },
        {
          "indexed": false,
          "internalType": "string[]",
          "name": "tags",
          "type": "string[]"
        }
      ],
      "name": "PostAdded",
      "type": "event"
    },
    {
      "inputs": [],
      "name": "getAllPosts",
      "outputs": [
        {
          "components": [
            {
              "internalType": "string",
              "name": "imageUrl",
              "type": "string"
            },
            {
              "internalType": "string",
              "name": "imageName",
              "type": "string"
            },
            {
              "internalType": "string",
              "name": "assetId",
              "type": "string"
            },
            {
              "internalType": "string",
              "name": "playbackId",
              "type": "string"
            },
            {
              "internalType": "string",
              "name": "text",
              "type": "string"
            },
            {
              "internalType": "string[]",
              "name": "tags",
              "type": "string[]"
            }
          ],
          "internalType": "struct Blog.PostData[]",
          "name": "",
          "type": "tuple[]"
        }
      ],
      "stateMutability": "view",
      "type": "function"
    },
    {
      "inputs": [],
      "name": "getLatestPosts",
      "outputs": [
        {
          "components": [
            {
              "internalType": "string",
              "name": "imageUrl",
              "type": "string"
            },
            {
              "internalType": "string",
              "name": "imageName",
              "type": "string"
            },
            {
              "internalType": "string",
              "name": "assetId",
              "type": "string"
            },
            {
              "internalType": "string",
              "name": "playbackId",
              "type": "string"
            },
            {
              "internalType": "string",
              "name": "text",
              "type": "string"
            },
            {
              "internalType": "string[]",
              "name": "tags",
              "type": "string[]"
            }
          ],
          "internalType": "struct Blog.PostData[]",
          "name": "",
          "type": "tuple[]"
        },
        {
          "internalType": "uint256",
          "name": "",
          "type": "uint256"
        }
      ],
      "stateMutability": "view",
      "type": "function"
    },
    {
      "inputs": [],
      "name": "getMyPosts",
      "outputs": [
        {
          "components": [
            {
              "internalType": "string",
              "name": "imageUrl",
              "type": "string"
            },
            {
              "internalType": "string",
              "name": "imageName",
              "type": "string"
            },
            {
              "internalType": "string",
              "name": "assetId",
              "type": "string"
            },
            {
              "internalType": "string",
              "name": "playbackId",
              "type": "string"
            },
            {
              "internalType": "string",
              "name": "text",
              "type": "string"
            },
            {
              "internalType": "string[]",
              "name": "tags",
              "type": "string[]"
            }
          ],
          "internalType": "struct Blog.PostData[]",
          "name": "",
          "type": "tuple[]"
        }
      ],
      "stateMutability": "view",
      "type": "function"
    },
    {
      "inputs": [
        {
          "internalType": "address",
          "name": "author",
          "type": "address"
        }
      ],
      "name": "getPaidEth",
      "outputs": [
        {
          "internalType": "uint256",
          "name": "",
          "type": "uint256"
        }
      ],
      "stateMutability": "view",
      "type": "function"
    },
    {
      "inputs": [
        {
          "internalType": "uint256",
          "name": "_postId",
          "type": "uint256"
        }
      ],
      "name": "getPostById",
      "outputs": [
        {
          "components": [
            {
              "internalType": "string",
              "name": "imageUrl",
              "type": "string"
            },
            {
              "internalType": "string",
              "name": "imageName",
              "type": "string"
            },
            {
              "internalType": "string",
              "name": "assetId",
              "type": "string"
            },
            {
              "internalType": "string",
              "name": "playbackId",
              "type": "string"
            },
            {
              "internalType": "string",
              "name": "text",
              "type": "string"
            },
            {
              "internalType": "string[]",
              "name": "tags",
              "type": "string[]"
            }
          ],
          "internalType": "struct Blog.PostData",
          "name": "",
          "type": "tuple"
        }
      ],
      "stateMutability": "view",
      "type": "function"
    },
    {
      "inputs": [
        {
          "internalType": "uint256[]",
          "name": "_postIds",
          "type": "uint256[]"
        }
      ],
      "name": "getPostsByIds",
      "outputs": [
        {
          "components": [
            {
              "internalType": "string",
              "name": "imageUrl",
              "type": "string"
            },
            {
              "internalType": "string",
              "name": "imageName",
              "type": "string"
            },
            {
              "internalType": "string",
              "name": "assetId",
              "type": "string"
            },
            {
              "internalType": "string",
              "name": "playbackId",
              "type": "string"
            },
            {
              "internalType": "string",
              "name": "text",
              "type": "string"
            },
            {
              "internalType": "string[]",
              "name": "tags",
              "type": "string[]"
            }
          ],
          "internalType": "struct Blog.PostData[]",
          "name": "",
          "type": "tuple[]"
        }
      ],
      "stateMutability": "view",
      "type": "function"
    },
    {
      "inputs": [],
      "name": "greet",
      "outputs": [
        {
          "internalType": "string",
          "name": "",
          "type": "string"
        }
      ],
      "stateMutability": "pure",
      "type": "function"
    },
    {
      "inputs": [
        {
          "internalType": "address",
          "name": "",
          "type": "address"
        }
      ],
      "name": "paidEth",
      "outputs": [
        {
          "internalType": "uint256",
          "name": "",
          "type": "uint256"
        }
      ],
      "stateMutability": "view",
      "type": "function"
    },
    {
      "inputs": [
        {
          "internalType": "string",
          "name": "_imageUrl",
          "type": "string"
        },
        {
          "internalType": "string",
          "name": "_imageName",
          "type": "string"
        },
        {
          "internalType": "string",
          "name": "_assetId",
          "type": "string"
        },
        {
          "internalType": "string",
          "name": "_playbackId",
          "type": "string"
        },
        {
          "internalType": "string",
          "name": "_text",
          "type": "string"
        },
        {
          "internalType": "string[]",
          "name": "_tags",
          "type": "string[]"
        }
      ],
      "name": "post",
      "outputs": [],
      "stateMutability": "payable",
      "type": "function"
    },
    {
      "inputs": [
        {
          "internalType": "uint256",
          "name": "",
          "type": "uint256"
        }
      ],
      "name": "posts",
      "outputs": [
        {
          "internalType": "string",
          "name": "imageUrl",
          "type": "string"
        },
        {
          "internalType": "string",
          "name": "imageName",
          "type": "string"
        },
        {
          "internalType": "string",
          "name": "assetId",
          "type": "string"
        },
        {
          "internalType": "string",
          "name": "playbackId",
          "type": "string"
        },
        {
          "internalType": "string",
          "name": "text",
          "type": "string"
        }
      ],
      "stateMutability": "view",
      "type": "function"
    },
    {
      "inputs": [
        {
          "internalType": "address payable",
          "name": "author",
          "type": "address"
        },
        {
          "internalType": "uint256",
          "name": "reward",
          "type": "uint256"
        }
      ],
      "name": "rewardAuthor",
      "outputs": [],
      "stateMutability": "payable",
      "type": "function"
    },
    {
      "inputs": [],
      "name": "withdrawFunds",
      "outputs": [],
      "stateMutability": "nonpayable",
      "type": "function"
    }
  ],
  "bytecode": {
    "object": "0x608060405234801561001057600080fd5b50612909806100206000396000f3fe6080604052600436106100a75760003560e01c806364e958951161006457806364e95895146101825780639d35b16d146101af578063c5287d86146101e5578063cfae321714610205578063dc56e29b14610243578063dfdd16c21461026657600080fd5b80630b1e7f83146100ac57806324600fc3146100e6578063253f2d07146100fd578063305611001461011057806351263795146101325780635950eb5b1461016d575b600080fd5b3480156100b857600080fd5b506100cc6100c7366004612088565b610279565b6040516100dd9594939291906120e7565b60405180910390f35b3480156100f257600080fd5b506100fb61054f565b005b6100fb61010b366004612169565b6105fa565b34801561011c57600080fd5b50610125610758565b6040516100dd91906122cc565b34801561013e57600080fd5b5061015f61014d3660046122e6565b60006020819052908152604090205481565b6040519081526020016100dd565b34801561017957600080fd5b50610125610bca565b34801561018e57600080fd5b506101a261019d366004612088565b6110ac565b6040516100dd9190612303565b3480156101bb57600080fd5b5061015f6101ca3660046122e6565b6001600160a01b031660009081526020819052604090205490565b3480156101f157600080fd5b50610125610200366004612381565b611485565b34801561021157600080fd5b50604080518082018252600f81526e54686973206973206120626c6f672160881b602082015290516100dd9190612417565b34801561024f57600080fd5b50610258611905565b6040516100dd92919061242a565b6100fb610274366004612547565b611dc5565b6002602052600090815260409020805481906102949061263c565b80601f01602080910402602001604051908101604052809291908181526020018280546102c09061263c565b801561030d5780601f106102e25761010080835404028352916020019161030d565b820191906000526020600020905b8154815290600101906020018083116102f057829003601f168201915b5050505050908060010180546103229061263c565b80601f016020809104026020016040519081016040528092919081815260200182805461034e9061263c565b801561039b5780601f106103705761010080835404028352916020019161039b565b820191906000526020600020905b81548152906001019060200180831161037e57829003601f168201915b5050505050908060020180546103b09061263c565b80601f01602080910402602001604051908101604052809291908181526020018280546103dc9061263c565b80156104295780601f106103fe57610100808354040283529160200191610429565b820191906000526020600020905b81548152906001019060200180831161040c57829003601f168201915b50505050509080600301805461043e9061263c565b80601f016020809104026020016040519081016040528092919081815260200182805461046a9061263c565b80156104b75780601f1061048c576101008083540402835291602001916104b7565b820191906000526020600020905b81548152906001019060200180831161049a57829003601f168201915b5050505050908060040180546104cc9061263c565b80601f01602080910402602001604051908101604052809291908181526020018280546104f89061263c565b80156105455780601f1061051a57610100808354040283529160200191610545565b820191906000526020600020905b81548152906001019060200180831161052857829003601f168201915b5050505050905085565b33600090815260208190526040902054806105bb5760405162461bcd60e51b815260206004820152602160248201527f4e6f2066756e647320617661696c61626c6520666f72207769746864726177616044820152601b60fa1b60648201526084015b60405180910390fd5b336000818152602081905260408082208290555183156108fc0291849190818181858888f193505050501580156105f6573d6000803e3d6000fd5b5050565b803410156106685760405162461bcd60e51b815260206004820152603560248201527f54686520726577617264206d75737420626520657175616c20746f206f72206c6044820152740cae6e640e8d0c2dc40e8d0ca40e6cadce8408aa89605b1b60648201526084016105b2565b6001600160a01b0382166106da5760405162461bcd60e51b815260206004820152603360248201527f54686520617574686f722061646472657373206d75737420626520612076616c604482015272696420457468657265756d206164647265737360681b60648201526084016105b2565b6040516001600160a01b0383169082156108fc029083906000818181858888f19350505050158015610710573d6000803e3d6000fd5b50816001600160a01b03167f5e9602dc01bec2103bb6005d1c6255a2b4973230712176360b4e449079c36cbd8260405161074c91815260200190565b60405180910390a25050565b6060600060035467ffffffffffffffff81111561077757610777612316565b6040519080825280602002602001820160405280156107b057816020015b61079d611f8d565b8152602001906001900390816107955790505b50905060015b6003548111610bc45760008181526002602052604090819020815160c081019092528054829082906107e79061263c565b80601f01602080910402602001604051908101604052809291908181526020018280546108139061263c565b80156108605780601f1061083557610100808354040283529160200191610860565b820191906000526020600020905b81548152906001019060200180831161084357829003601f168201915b505050505081526020016001820180546108799061263c565b80601f01602080910402602001604051908101604052809291908181526020018280546108a59061263c565b80156108f25780601f106108c7576101008083540402835291602001916108f2565b820191906000526020600020905b8154815290600101906020018083116108d557829003601f168201915b5050505050815260200160028201805461090b9061263c565b80601f01602080910402602001604051908101604052809291908181526020018280546109379061263c565b80156109845780601f1061095957610100808354040283529160200191610984565b820191906000526020600020905b81548152906001019060200180831161096757829003601f168201915b5050505050815260200160038201805461099d9061263c565b80601f01602080910402602001604051908101604052809291908181526020018280546109c99061263c565b8015610a165780601f106109eb57610100808354040283529160200191610a16565b820191906000526020600020905b8154815290600101906020018083116109f957829003601f168201915b50505050508152602001600482018054610a2f9061263c565b80601f0160208091040260200160405190810160405280929190818152602001828054610a5b9061263c565b8015610aa85780601f10610a7d57610100808354040283529160200191610aa8565b820191906000526020600020905b815481529060010190602001808311610a8b57829003601f168201915b5050505050815260200160058201805480602002602001604051908101604052809291908181526020016000905b82821015610b82578382906000526020600020018054610af59061263c565b80601f0160208091040260200160405190810160405280929190818152602001828054610b219061263c565b8015610b6e5780601f10610b4357610100808354040283529160200191610b6e565b820191906000526020600020905b815481529060010190602001808311610b5157829003601f168201915b505050505081526020019060010190610ad6565b505050915250839050610b96600184612686565b81518110610ba657610ba661269f565b60200260200101819052508080610bbc906126b5565b9150506107b6565b50919050565b336000908152600160209081526040808320805482518185028101850190935280835260609493830182828015610c2057602002820191906000526020600020905b815481526020019060010190808311610c0c575b505050505090506000815167ffffffffffffffff811115610c4357610c43612316565b604051908082528060200260200182016040528015610c7c57816020015b610c69611f8d565b815260200190600190039081610c615790505b50905060005b82518110156110a55760026000848381518110610ca157610ca161269f565b602002602001015181526020019081526020016000206040518060c0016040529081600082018054610cd29061263c565b80601f0160208091040260200160405190810160405280929190818152602001828054610cfe9061263c565b8015610d4b5780601f10610d2057610100808354040283529160200191610d4b565b820191906000526020600020905b815481529060010190602001808311610d2e57829003601f168201915b50505050508152602001600182018054610d649061263c565b80601f0160208091040260200160405190810160405280929190818152602001828054610d909061263c565b8015610ddd5780601f10610db257610100808354040283529160200191610ddd565b820191906000526020600020905b815481529060010190602001808311610dc057829003601f168201915b50505050508152602001600282018054610df69061263c565b80601f0160208091040260200160405190810160405280929190818152602001828054610e229061263c565b8015610e6f5780601f10610e4457610100808354040283529160200191610e6f565b820191906000526020600020905b815481529060010190602001808311610e5257829003601f168201915b50505050508152602001600382018054610e889061263c565b80601f0160208091040260200160405190810160405280929190818152602001828054610eb49061263c565b8015610f015780601f10610ed657610100808354040283529160200191610f01565b820191906000526020600020905b815481529060010190602001808311610ee457829003601f168201915b50505050508152602001600482018054610f1a9061263c565b80601f0160208091040260200160405190810160405280929190818152602001828054610f469061263c565b8015610f935780601f10610f6857610100808354040283529160200191610f93565b820191906000526020600020905b815481529060010190602001808311610f7657829003601f168201915b5050505050815260200160058201805480602002602001604051908101604052809291908181526020016000905b8282101561106d578382906000526020600020018054610fe09061263c565b80601f016020809104026020016040519081016040528092919081815260200182805461100c9061263c565b80156110595780601f1061102e57610100808354040283529160200191611059565b820191906000526020600020905b81548152906001019060200180831161103c57829003601f168201915b505050505081526020019060010190610fc1565b50505050815250508282815181106110875761108761269f565b6020026020010181905250808061109d906126b5565b915050610c82565b5092915050565b6110b4611f8d565b60008281526002602052604090819020815160c081019092528054829082906110dc9061263c565b80601f01602080910402602001604051908101604052809291908181526020018280546111089061263c565b80156111555780601f1061112a57610100808354040283529160200191611155565b820191906000526020600020905b81548152906001019060200180831161113857829003601f168201915b5050505050815260200160018201805461116e9061263c565b80601f016020809104026020016040519081016040528092919081815260200182805461119a9061263c565b80156111e75780601f106111bc576101008083540402835291602001916111e7565b820191906000526020600020905b8154815290600101906020018083116111ca57829003601f168201915b505050505081526020016002820180546112009061263c565b80601f016020809104026020016040519081016040528092919081815260200182805461122c9061263c565b80156112795780601f1061124e57610100808354040283529160200191611279565b820191906000526020600020905b81548152906001019060200180831161125c57829003601f168201915b505050505081526020016003820180546112929061263c565b80601f01602080910402602001604051908101604052809291908181526020018280546112be9061263c565b801561130b5780601f106112e05761010080835404028352916020019161130b565b820191906000526020600020905b8154815290600101906020018083116112ee57829003601f168201915b505050505081526020016004820180546113249061263c565b80601f01602080910402602001604051908101604052809291908181526020018280546113509061263c565b801561139d5780601f106113725761010080835404028352916020019161139d565b820191906000526020600020905b81548152906001019060200180831161138057829003601f168201915b5050505050815260200160058201805480602002602001604051908101604052809291908181526020016000905b828210156114775783829060005260206000200180546113ea9061263c565b80601f01602080910402602001604051908101604052809291908181526020018280546114169061263c565b80156114635780601f1061143857610100808354040283529160200191611463565b820191906000526020600020905b81548152906001019060200180831161144657829003601f168201915b5050505050815260200190600101906113cb565b505050915250909392505050565b60606000825167ffffffffffffffff8111156114a3576114a3612316565b6040519080825280602002602001820160405280156114dc57816020015b6114c9611f8d565b8152602001906001900390816114c15790505b50905060005b83518110156110a557600260008583815181106115015761150161269f565b602002602001015181526020019081526020016000206040518060c00160405290816000820180546115329061263c565b80601f016020809104026020016040519081016040528092919081815260200182805461155e9061263c565b80156115ab5780601f10611580576101008083540402835291602001916115ab565b820191906000526020600020905b81548152906001019060200180831161158e57829003601f168201915b505050505081526020016001820180546115c49061263c565b80601f01602080910402602001604051908101604052809291908181526020018280546115f09061263c565b801561163d5780601f106116125761010080835404028352916020019161163d565b820191906000526020600020905b81548152906001019060200180831161162057829003601f168201915b505050505081526020016002820180546116569061263c565b80601f01602080910402602001604051908101604052809291908181526020018280546116829061263c565b80156116cf5780601f106116a4576101008083540402835291602001916116cf565b820191906000526020600020905b8154815290600101906020018083116116b257829003601f168201915b505050505081526020016003820180546116e89061263c565b80601f01602080910402602001604051908101604052809291908181526020018280546117149061263c565b80156117615780601f1061173657610100808354040283529160200191611761565b820191906000526020600020905b81548152906001019060200180831161174457829003601f168201915b5050505050815260200160048201805461177a9061263c565b80601f01602080910402602001604051908101604052809291908181526020018280546117a69061263c565b80156117f35780601f106117c8576101008083540402835291602001916117f3565b820191906000526020600020905b8154815290600101906020018083116117d657829003601f168201915b5050505050815260200160058201805480602002602001604051908101604052809291908181526020016000905b828210156118cd5783829060005260206000200180546118409061263c565b80601f016020809104026020016040519081016040528092919081815260200182805461186c9061263c565b80156118b95780601f1061188e576101008083540402835291602001916118b9565b820191906000526020600020905b81548152906001019060200180831161189c57829003601f168201915b505050505081526020019060010190611821565b50505050815250508282815181106118e7576118e761269f565b602002602001018190525080806118fd906126b5565b9150506114e2565b600354606090600090600581111561192957611922600582612686565b905061192d565b5060015b60008160035461193d9190612686565b6119489060016126ce565b905060008167ffffffffffffffff81111561196557611965612316565b60405190808252806020026020018201604052801561199e57816020015b61198b611f8d565b8152602001906001900390816119835790505b50905060005b82811015611db657600260006119ba83876126ce565b81526020019081526020016000206040518060c00160405290816000820180546119e39061263c565b80601f0160208091040260200160405190810160405280929190818152602001828054611a0f9061263c565b8015611a5c5780601f10611a3157610100808354040283529160200191611a5c565b820191906000526020600020905b815481529060010190602001808311611a3f57829003601f168201915b50505050508152602001600182018054611a759061263c565b80601f0160208091040260200160405190810160405280929190818152602001828054611aa19061263c565b8015611aee5780601f10611ac357610100808354040283529160200191611aee565b820191906000526020600020905b815481529060010190602001808311611ad157829003601f168201915b50505050508152602001600282018054611b079061263c565b80601f0160208091040260200160405190810160405280929190818152602001828054611b339061263c565b8015611b805780601f10611b5557610100808354040283529160200191611b80565b820191906000526020600020905b815481529060010190602001808311611b6357829003601f168201915b50505050508152602001600382018054611b999061263c565b80601f0160208091040260200160405190810160405280929190818152602001828054611bc59061263c565b8015611c125780601f10611be757610100808354040283529160200191611c12565b820191906000526020600020905b815481529060010190602001808311611bf557829003601f168201915b50505050508152602001600482018054611c2b9061263c565b80601f0160208091040260200160405190810160405280929190818152602001828054611c579061263c565b8015611ca45780601f10611c7957610100808354040283529160200191611ca4565b820191906000526020600020905b815481529060010190602001808311611c8757829003601f168201915b5050505050815260200160058201805480602002602001604051908101604052809291908181526020016000905b82821015611d7e578382906000526020600020018054611cf19061263c565b80601f0160208091040260200160405190810160405280929190818152602001828054611d1d9061263c565b8015611d6a5780601f10611d3f57610100808354040283529160200191611d6a565b820191906000526020600020905b815481529060010190602001808311611d4d57829003601f168201915b505050505081526020019060010190611cd2565b5050505081525050828281518110611d9857611d9861269f565b60200260200101819052508080611dae906126b5565b9150506119a4565b50600354909590945092505050565b60003411611e235760405162461bcd60e51b815260206004820152602560248201527f596f75206d7573742070617920736f6d652045544820746f20706f737420636f6044820152641b9d195b9d60da1b60648201526084016105b2565b3360009081526020819052604081208054349290611e429084906126ce565b909155505060038054906000611e57836126b5565b9091555050336000908152600160208181526040808420600380548254958601835591865283862090940155805160c0810182528a81528083018a9052808201899052606081018890526080810187905260a0810186905292548452600290915290912081518190611ec99082612730565b5060208201516001820190611ede9082612730565b5060408201516002820190611ef39082612730565b5060608201516003820190611f089082612730565b5060808201516004820190611f1d9082612730565b5060a08201518051611f39916005840191602090910190611fc3565b509050506003547f8d9303fc255b8d682920d3189f750e7cca889a5bd14d00eaf150b8625032624a3334898989898989604051611f7d9897969594939291906127f0565b60405180910390a2505050505050565b6040518060c001604052806060815260200160608152602001606081526020016060815260200160608152602001606081525090565b828054828255906000526020600020908101928215612009579160200282015b828111156120095782518290611ff99082612730565b5091602001919060010190611fe3565b50612015929150612019565b5090565b8082111561201557600061202d8282612036565b50600101612019565b5080546120429061263c565b6000825580601f10612052575050565b601f0160209004906000526020600020908101906120709190612073565b50565b5b808211156120155760008155600101612074565b60006020828403121561209a57600080fd5b5035919050565b6000815180845260005b818110156120c7576020818501810151868301820152016120ab565b506000602082860101526020601f19601f83011685010191505092915050565b60a0815260006120fa60a08301886120a1565b828103602084015261210c81886120a1565b9050828103604084015261212081876120a1565b9050828103606084015261213481866120a1565b9050828103608084015261214881856120a1565b98975050505050505050565b6001600160a01b038116811461207057600080fd5b6000806040838503121561217c57600080fd5b823561218781612154565b946020939093013593505050565b6000815160c084526121aa60c08501826120a1565b9050602080840151858303828701526121c383826120a1565b925050604084015185830360408701526121dd83826120a1565b925050606084015185830360608701526121f783826120a1565b9250506080840151858303608087015261221183826120a1565b92505060a084015185830360a08701528281518085528385019150838160051b860101848401935060005b8281101561226a57601f198783030184526122588286516120a1565b9486019493860193915060010161223c565b5098975050505050505050565b600081518084526020808501808196508360051b8101915082860160005b858110156122bf5782840389526122ad848351612195565b98850198935090840190600101612295565b5091979650505050505050565b6020815260006122df6020830184612277565b9392505050565b6000602082840312156122f857600080fd5b81356122df81612154565b6020815260006122df6020830184612195565b634e487b7160e01b600052604160045260246000fd5b604051601f8201601f1916810167ffffffffffffffff8111828210171561235557612355612316565b604052919050565b600067ffffffffffffffff82111561237757612377612316565b5060051b60200190565b6000602080838503121561239457600080fd5b823567ffffffffffffffff8111156123ab57600080fd5b8301601f810185136123bc57600080fd5b80356123cf6123ca8261235d565b61232c565b81815260059190911b820183019083810190878311156123ee57600080fd5b928401925b8284101561240c578335825292840192908401906123f3565b979650505050505050565b6020815260006122df60208301846120a1565b60408152600061243d6040830185612277565b90508260208301529392505050565b600082601f83011261245d57600080fd5b813567ffffffffffffffff81111561247757612477612316565b61248a601f8201601f191660200161232c565b81815284602083860101111561249f57600080fd5b816020850160208301376000918101602001919091529392505050565b600082601f8301126124cd57600080fd5b813560206124dd6123ca8361235d565b82815260059290921b840181019181810190868411156124fc57600080fd5b8286015b8481101561253c57803567ffffffffffffffff8111156125205760008081fd5b61252e8986838b010161244c565b845250918301918301612500565b509695505050505050565b60008060008060008060c0878903121561256057600080fd5b863567ffffffffffffffff8082111561257857600080fd5b6125848a838b0161244c565b9750602089013591508082111561259a57600080fd5b6125a68a838b0161244c565b965060408901359150808211156125bc57600080fd5b6125c88a838b0161244c565b955060608901359150808211156125de57600080fd5b6125ea8a838b0161244c565b9450608089013591508082111561260057600080fd5b61260c8a838b0161244c565b935060a089013591508082111561262257600080fd5b5061262f89828a016124bc565b9150509295509295509295565b600181811c9082168061265057607f821691505b602082108103610bc457634e487b7160e01b600052602260045260246000fd5b634e487b7160e01b600052601160045260246000fd5b8181038181111561269957612699612670565b92915050565b634e487b7160e01b600052603260045260246000fd5b6000600182016126c7576126c7612670565b5060010190565b8082018082111561269957612699612670565b601f82111561272b57600081815260208120601f850160051c810160208610156127085750805b601f850160051c820191505b8181101561272757828155600101612714565b5050505b505050565b815167ffffffffffffffff81111561274a5761274a612316565b61275e81612758845461263c565b846126e1565b602080601f831160018114612793576000841561277b5750858301515b600019600386901b1c1916600185901b178555612727565b600085815260208120601f198616915b828110156127c2578886015182559484019460019091019084016127a3565b50858210156127e05787850151600019600388901b60f8161c191681555b5050505050600190811b01905550565b6001600160a01b038916815260208082018990526101006040830181905260009161281d8483018b6120a1565b91508382036060850152612831828a6120a1565b9150838203608085015261284582896120a1565b915083820360a085015261285982886120a1565b915083820360c085015261286d82876120a1565b915083820360e08501528185518084528284019150828160051b85010183880160005b838110156128be57601f198784030185526128ac8383516120a1565b94860194925090850190600101612890565b50909f9e50505050505050505050505050505056fea26469706673582212207b87d8efa778fdaf96a5c3a839ee87df6a714db60525796ee749838ab6bfad9d64736f6c63430008120033",
    "linkReferences": {}
  },
  "methodIdentifiers": {
    "getAllPosts()": "30561100",
    "getLatestPosts()": "dc56e29b",
    "getMyPosts()": "5950eb5b",
    "getPaidEth(address)": "9d35b16d",
    "getPostById(uint256)": "64e95895",
    "getPostsByIds(uint256[])": "c5287d86",
    "greet()": "cfae3217",
    "paidEth(address)": "51263795",
    "post(string,string,string,string,string,string[])": "dfdd16c2",
    "posts(uint256)": "0b1e7f83",
    "rewardAuthor(address,uint256)": "253f2d07",
    "withdrawFunds()": "24600fc3"
  },
  "id": 0
}